:020000040800F2
:1000000000C000204D700008016F0008056F000857
:10001000096F00080D6F0008116F00080000000054
:100020000000000000000000000000003151000846
:10003000156F000800000000C151000805520008BB
:10004000957000089570000895700008957000087C
:10005000957000089570000895700008957000086C
:10006000957000089570000895700008196F0008D9
:10007000957000089570000895700008957000084C
:10008000957000089570000895700008957000083C
:10009000957000089570000895700008957000082C
:1000A00095700008256F000895700008656F0008BE
:1000B000716F00087D6F000895700008957000084A
:1000C00095700008957000089570000895700008FC
:1000D000957000089D6F0008A96F0008B56F0008B3
:1000E00095700008957000089570000895700008DC
:1000F00095700008957000089570000895700008CC
:1001000095700008957000089570000895700008BB
:1001100095700008957000089570000895700008AB
:10012000957000089570000895700008957000089B
:1001300000000000000000000000000000000000BF
:1001400000000000000000000000000000000000AF
:10015000000000000000000000000000000000009F
:10016000000000000000000000000000000000008F
:10017000000000000000000000000000000000007F
:10018000000000000000000000000000000000006F
:10019000000000000000000000000000000000005F
:1001A000000000000000000000000000000000004F
:1001B000000000000000000000000000000000003F
:1001C000000000000000000000000000000000002F
:1001D000000000000000000000000000000000001F
:0401E0005FF8E0F1F3
:1001F00010B5054C237833B9044B13B10448AFF361
:1002000000800123237010BD3C030020000000008B
:100210006C7A000808B5034B1BB103490348AFF3E0
:10022000008008BD00000000400300206C7A000838
:10023000034613F8012B002AFBD1181A0138704726
:1002400070B54FF0FF0C4CF4E06C1CEA11541DBF6C
:100250001CEA135594EA0C0F95EA0C0F00F0DEF837
:100260002C4481EA030621EA4C5123EA4C5350EA1C
:10027000013518BF52EA033541F4801143F480136D
:1002800038D0A0FB02CE4FF00005E1FB02E506F0FE
:100290000042E0FB03E54FF00006E1FB03569CF053
:1002A000000F18BF4EF0010EA4F1FF04B6F5007F59
:1002B00064F5407404D25FEA4E0E6D4146EB0606CB
:1002C00042EAC62141EA55514FEAC52040EA5E5054
:1002D0004FEACE2EB4F1FD0C88BFBCF5E06F1ED8FE
:1002E000BEF1004F08BF5FEA500E50F1000041EB35
:1002F000045170BD06F0004646EA010140EA0200E2
:1003000081EA0301B4EB5C04C2BFD4EB0C0541EA03
:10031000045170BD41F480114FF0000E013C00F318
:10032000AB8014F1360FDEBF002001F0004170BD3C
:10033000C4F10004203C35DA0C341BDC04F1140455
:10034000C4F1200500FA05F320FA04F001FA05F2E1
:1003500040EA020001F0004221F0004110EBD370AE
:1003600021FA04F642EB06015EEA430E08BF20EADA
:10037000D37070BDC4F10C04C4F1200500FA04F37D
:1003800020FA05F001FA04F240EA020001F000410F
:1003900010EBD37041F100015EEA430E08BF20EA82
:1003A000D37070BDC4F1200500FA05F24EEA020ECA
:1003B00020FA04F301FA05F243EA020321FA04F0F9
:1003C00001F0004121FA04F220EA020000EBD370B0
:1003D0005EEA430E08BF20EAD37070BD94F0000FB0
:1003E0000FD101F00046400041EB010111F4801FE4
:1003F00008BF013CF7D041EA060195F0000F18BF95
:10040000704703F00046520043EB030313F4801FD0
:1004100008BF013DF7D043EA0603704794EA0C0F8A
:100420000CEA135518BF95EA0C0F0CD050EA4106A0
:1004300018BF52EA4306D1D181EA030101F000411D
:100440004FF0000070BD50EA410606BF1046194645
:1004500052EA430619D094EA0C0F02D150EA013651
:1004600013D195EA0C0F05D152EA03361CBF104692
:1004700019460AD181EA030101F0004141F0FE4131
:1004800041F470014FF0000070BD41F0FE4141F4B5
:10049000780170BD81F0004102E000BF83F00043AD
:1004A00030B54FEA41044FEA430594EA050F08BF0F
:1004B00090EA020F1FBF54EA000C55EA020C7FEAD3
:1004C000645C7FEA655C00F0E2804FEA5454D4EB50
:1004D0005555B8BF6D420CDD2C4480EA020281EA1A
:1004E000030382EA000083EA010180EA020281EA52
:1004F0000303362D88BF30BD11F0004F4FEA0131A4
:100500004FF4801C4CEA113102D0404261EB4101B2
:1005100013F0004F4FEA03334CEA133302D0524238
:1005200063EB430394EA050F00F0A780A4F10104F4
:10053000D5F1200E0DDB02FA0EFC22FA05F280182E
:1005400041F1000103FA0EF2801843FA05F3594114
:100550000EE0A5F120050EF1200E012A03FA0EFC93
:1005600028BF4CF0020C43FA05F3C01851EBE371BD
:1005700001F0004507D54FF0000EDCF1000C7EEBDA
:1005800000006EEB0101B1F5801F1BD3B1F5001F18
:100590000CD349085FEA30004FEA3C0C04F1010437
:1005A0004FEA445212F5800F80F09A80BCF1004F60
:1005B00008BF5FEA500C50F1000041EB045141EAE2
:1005C000050130BD5FEA4C0C404141EB0101013CAB
:1005D00028BFB1F5801FE9D291F0000F04BF01469A
:1005E0000020B1FA81F308BF2033A3F10B03B3F16C
:1005F00020020CDA0C3208DD02F1140CC2F10C02FC
:1006000001FA0CF021FA02F10CE002F11402D8BF59
:10061000C2F1200C01FA02F120FA0CFCDCBF41EA25
:100620000C019040E41AA2BF01EB0451294330BDF4
:100630006FEA04041F3C1CDA0C340EDC04F11404D1
:10064000C4F1200220FA04F001FA02F340EA0300A8
:1006500021FA04F345EA030130BDC4F10C04C4F1EE
:10066000200220FA02F001FA04F340EA03002946CE
:1006700030BD21FA04F0294630BD94F0000F83F418
:10068000801306BF81F480110134013D4EE77FEAFB
:10069000645C18BF7FEA655C29D094EA050F08BF47
:1006A00090EA020F05D054EA000C04BF1946104628
:1006B00030BD91EA030F1EBF0021002030BD5FEA6C
:1006C000545C05D14000494128BF41F0004130BD94
:1006D00014F580043CBF01F5801130BD01F00045E8
:1006E00045F0FE4141F470014FF0000030BD7FEA5B
:1006F000645C1ABF194610467FEA655C1CBF0B4656
:10070000024650EA013406BF52EA033591EA030F6C
:1007100041F4002130BD00BF90F0000F04BF002164
:10072000704730B54FF4806404F132044FF0000597
:100730004FF0000150E700BF90F0000F04BF002110
:10074000704730B54FF4806404F1320410F0004576
:1007500048BF40424FF000013EE700BF42004FEA71
:10076000E2014FEA31014FEA02701FBF12F07F43EE
:1007700093F07F4F81F06051704732F07F4208BFA5
:10078000704793F07F4F04BF41F40021704730B5AC
:100790004FF4607401F0004521F000411CE700BFF8
:1007A00050EA010208BF704730B54FF000050AE07B
:1007B00050EA010208BF704730B511F0004502D57C
:1007C000404261EB41014FF4806404F132045FEA7E
:1007D000915C3FF4D8AE4FF003025FEADC0C18BF27
:1007E00003325FEADC0C18BF033202EBDC02C2F119
:1007F000200300FA03FC20FA02F001FA03FE40EAAB
:100800000E0021FA02F11444BDE600BF4FEA410296
:10081000B2F1E04324BFB3F5001CDCF1FE5C0DD95E
:1008200001F0004C4FEAC0024CEA5070B2F1004FA8
:1008300040EB830008BF20F00100704711F0804FAB
:1008400021D113F13872BCBF01F00040704741F470
:1008500080114FEA5252C2F11802C2F1200C10FA74
:100860000CF320FA02F018BF40F001004FEAC12358
:100870004FEAD32303FA0CFC40EA0C0023FA02F3FC
:100880004FEA4303CCE77FEA625307D150EA0133D2
:100890001EBF4FF0FE4040F44000704701F00040A2
:1008A00040F0FE4040F40000704700BF80F0004080
:1008B00002E000BF81F0004142001FBF5FEA410338
:1008C00092EA030F7FEA226C7FEA236C6AD04FEA38
:1008D0001262D2EB1363C1BFD2184140484041407D
:1008E000B8BF5B42192B88BF704710F0004F40F42F
:1008F000000020F07F4018BF404211F0004F41F44B
:10090000000121F07F4118BF494292EA030F3FD016
:10091000A2F1010241FA03FC10EB0C00C3F1200329
:1009200001FA03F100F0004302D5494260EB4000B8
:10093000B0F5000F13D3B0F1807F06D340084FEA23
:10094000310102F10102FE2A51D2B1F1004F40EB18
:10095000C25008BF20F0010040EA03007047490080
:1009600040EB0000013A28BFB0F5000FEDD2B0FA1D
:1009700080FCACF1080CB2EB0C0200FA0CF0AABF40
:1009800000EBC25052421843BCBFD04018437047DE
:1009900092F0000F81F4000106BF80F400000132E4
:1009A000013BB5E74FEA41037FEA226C18BF7FEABB
:1009B000236C21D092EA030F04D092F0000F08BFFD
:1009C0000846704790EA010F1CBF0020704712F0E4
:1009D0007F4F04D1400028BF40F00040704712F123
:1009E00000723CBF00F50000704700F0004343F088
:1009F000FE4040F4000070477FEA226216BF0846BE
:100A00007FEA23630146420206BF5FEA412390EA80
:100A1000010F40F4800070474FF0000304E000BF76
:100A200010F0004348BF40425FEA000C08BF704727
:100A300043F0964301464FF000001CE050EA0102EB
:100A400008BF70474FF000030AE000BF50EA010200
:100A500008BF704711F0004302D5404261EB4101ED
:100A60005FEA010C02BF84460146002043F0B64312
:100A700008BFA3F18053A3F50003BCFA8CF2083A37
:100A8000A3EBC25310DB01FA02FC634400FA02FC40
:100A9000C2F12002BCF1004F20FA02F243EB020047
:100AA00008BF20F00100704702F1200201FA02FCA9
:100AB000C2F1200250EA4C0021FA02F243EB02009C
:100AC00008BF20EADC7070474FF0FF0C1CEAD052E0
:100AD0001EBF1CEAD15392EA0C0F93EA0C0F6FD0A1
:100AE0001A4480EA010C400218BF5FEA41211ED07F
:100AF0004FF0006343EA501043EA5111A0FB01316B
:100B00000CF00040B1F5000F3EBF490041EAD3713F
:100B10005B0040EA010062F17F02FD2A1DD8B3F1BB
:100B2000004F40EBC25008BF20F00100704790F02A
:100B3000000F0CF0004C08BF49024CEA502040EA7C
:100B400051207F3AC2BFD2F1FF0340EAC250704742
:100B500040F400004FF00003013A5DDC12F1190F80
:100B6000DCBF00F000407047C2F10002410021FAF2
:100B700002F1C2F1200200FA02FC5FEA310040F10A
:100B8000000053EA4C0308BF20EADC70704792F083
:100B9000000F00F0004C02BF400010F4000F013ABB
:100BA000F9D040EA0C0093F0000F01F0004C02BFB6
:100BB000490011F4000F013BF9D041EA0C018FE725
:100BC0000CEAD15392EA0C0F18BF93EA0C0F0AD02B
:100BD00030F0004C18BF31F0004CD8D180EA010051
:100BE00000F00040704790F0000F17BF90F0004FEA
:100BF000084691F0000F91F0004F14D092EA0C0FCC
:100C000001D142020FD193EA0C0F03D14B0218BF5E
:100C1000084608D180EA010000F0004040F0FE40A4
:100C200040F40000704740F0FE4040F44000704740
:100C30004FF0FF0C1CEAD0521EBF1CEAD15392EABF
:100C40000C0F93EA0C0F69D0A2EB030280EA010CAF
:100C500049024FEA402037D04FF0805343EA111148
:100C600043EA10130CF000408B4238BF5B0042F1A6
:100C70007D024FF4000C8B4224BF5B1A40EA0C004B
:100C8000B3EB510F24BFA3EB510340EA5C00B3EB7D
:100C9000910F24BFA3EB910340EA9C00B3EBD10F6B
:100CA00024BFA3EBD10340EADC001B0118BF5FEABD
:100CB0001C1CE0D1FD2A3FF650AF8B4240EBC250E6
:100CC00008BF20F0010070470CF0004C4CEA5020A7
:100CD0007F32C2BFD2F1FF0340EAC250704740F4F6
:100CE00000004FF00003013A37E792F0000F00F0E8
:100CF000004C02BF400010F4000F013AF9D040EA66
:100D00000C0093F0000F01F0004C02BF490011F4F9
:100D1000000F013BF9D041EA0C0195E70CEAD153F1
:100D200092EA0C0F08D142027FF47DAF93EA0C0FD8
:100D30007FF470AF084676E793EA0C0F04D14B02BC
:100D40003FF44CAF08466EE730F0004C18BF31F06E
:100D5000004CCAD130F000427FF45CAF31F0004368
:100D60007FF43CAF5FE700BF42000ED2B2F1FE4F0E
:100D70000BD34FF09E03B3EB126209D44FEA00236A
:100D800043F0004323FA02F070474FF00000704731
:100D900012F1610F01D1420202D14FF0FF307047D2
:100DA0004FF00000704700BF074A08B513680320E2
:100DB00043F01003136000F08FFA002006F062F891
:100DC00005F05AFE002008BD00200240034A044BF3
:100DD00011681B780B441360704700BF9C180020FB
:100DE00000000020014B1868704700BF9C180020CD
:100DF00038B50446FFF7F6FF631C054602D0044BE6
:100E00001B781C44FFF7EEFF401BA042FAD338BD0D
:100E100000000020002800F08C80F8B5836A0446AA
:100E2000002B69D023689A68D50742D4A26AD206FB
:100E30005CD4A26A554922F4885222F0020242F0A0
:100E400002028B42A262E06962686CD0267BA168D4
:100E500042EA4602B1F5807F42EA0002207D51D08D
:100E600001290CBF4FF48077002701286DD05D6801
:100E7000474825F469453D435D609D68284010431F
:100E8000986001294BD00020D96A424D21F47001AD
:100E90000143D9629B681D40AA424CD00120A36A3D
:100EA00023F0120343F01003A362E36A0343E362F7
:100EB000F8BD9A6822F001029A60FFF793FF054699
:100EC00023689A68D007B1D5FFF78CFF431B022B2C
:100ED0002368F6D99A68D107F3D5A36A43F01003C3
:100EE000A362E36A43F00103E362A36AA36A0120F9
:100EF00043F01003A362F8BDC36280F8243005F00C
:100F0000E3FD8FE701281FD05868214920F469408C
:100F100040F48070586098680140114399602169DD
:100F200001390805B0E7B0F5402F08BF4FF40020A5
:100F30008CE7012070470020E062A36A23F00303DE
:100F400043F00103A362F8BD0F46BEB1A06A40F0B2
:100F50002000A062E06A40F00100E0625D680C4899
:100F600025F469453D435D609D68B1F5807F00EAE9
:100F7000050040EA0200986083D1D0E7A069451ED1
:100F800047EA453545F40067E8E700BF003C01400B
:100F9000FDF7E1FFFE0E1FFF704700BF436A9A6A2C
:100FA00012F0500F0FD19A6A196842F4007210B50E
:100FB0009A628A6802F46022B2F5602F06D0184661
:100FC000FFF7EAFF10BD1B6A1B6B18471A7B002A4C
:100FD000F5D19A6A22F480729A629A6AD204EED4A7
:100FE0009A6A42F001029A62E9E700BF704700BFC7
:100FF00008B5406AFFF7FAFF08BD00BF704700BFA1
:10100000406A08B5836A43F040038362C36A43F0D1
:101010000403C362FFF7F2FF08BD00BF02460020D1
:1010200070B492F8243083B0012B01905BD001237F
:1010300082F824304B681F26062B14682DD90C2B00
:1010400003EB830344D8256B0868233B9E4025EAC5
:10105000060500FA03F32B43236309282BD907263F
:1010600000EB40038D681E3BE1689E409D4021EAF5
:101070000603A0F110012B430129E36026D82A4B77
:101080009C4234D00120936A43F0200393620023F2
:1010900082F8243003B070BC704703EB8303086808
:1010A000656B053B9E4025EA060500FA03F32B43DA
:1010B00009286363D3D8072500EB400089682369BA
:1010C0008540814023EA0500084320610020DEE7D7
:1010D000E56A0868413B9E4025EA060500FA03F3ED
:1010E0002B43E362B9E7022003B070BC7047A368EA
:1010F0001B02EBD4A368102843F40003A360E5D1DE
:101100000A4B0B491B68A1FB03139B0C03EB8303E6
:101110005B000193019B002BD8D0019B013B019305
:10112000019B002BF9D1D1E700240140D40200201B
:1011300083DE1B43002330B5026883B001939368BC
:10114000D90727D41B4B04461B681B489168A0FB9A
:10115000030341F001019B0C91600193019B2BB1B2
:10116000019B013B0193019B002BF9D1FFF73AFE54
:10117000236805469B68DA070CD4FFF733FE431B50
:10118000022B236803D99A6812F0010205D09B68EC
:10119000DB07F2D5002003B030BD0120A36A84F83C
:1011A000242043F01003A362E36A0343E36203B025
:1011B00030BD00BFD402002083DE1B43F8B50446D7
:1011C000404D00680F46A84216465CD03E4B984200
:1011D00059D094F82430012B62D00123204684F8A2
:1011E0002430FFF7A7FF0546002854D1A06A2168E4
:1011F000354B20F4706020F0010040F4807099427B
:10120000A06250D0A36A23F48013A3624B685A05EE
:1012100005D5A36A23F4405343F48053A362A36A21
:101220006FF0020213F4805318BFE36A206A18BFFC
:1012300023F00603E3620023DFF894C084F824302F
:10124000224B4C31C0E90AC3DFF888C03346C0F8EE
:1012500030C041F84C2C51F8446C3A4646F4807644
:1012600041F8446C00F0D6F8236828469A6802F4E6
:101270006022B2F5602F9A680CBF42F4A00242F4DB
:1012800080129A60F8BD0F4B5B6813F4702FA0D0EA
:1012900001252846F8BD002384F824302846F8BDEF
:1012A00002252846F8BDA3F580635A6812F4702F12
:1012B000A8D0A26A42F48012A2625B685B05AED538
:1012C000A7E700BF0024014000280140F10F0008FB
:1012D0009D0F0008011000084FF6FF01064A0302A7
:1012E000D06803F4E0630840034343F0BF6343F472
:1012F0000033D360704700BF00ED00E0194B30B4FD
:10130000DB68C3F30223C3F10705042D03F10404D2
:1013100028BF0425062C19D94FF0FF34033B9C400D
:1013200022EA04024FF0FF34AC4021EA0401994064
:10133000002841EA02010CDB090100F16040C9B25A
:1013400000F5614080F8001330BC7047002213465E
:10135000E8E7054B00F00F000901C9B20344197614
:1013600030BC704700ED00E0FCEC00E0002807DB3B
:10137000012300F01F01034A8B40400942F820304E
:10138000704700BF00E100E0002834D003461B4A4C
:101390000068F0B4904225D919491A4A0144A2FBC9
:1013A0000121194F090989004FF48075D3E90126FD
:1013B00000243243DE6819643243D3E904613243C6
:1013C0009E690A4301683243DE6921F47F5132434A
:1013D00021F030010A43DF6302601D8420469C63D4
:1013E000F0BC70470949074A0144A2FB01210909E1
:1013F000074F8900D8E70120704700BF070402406B
:10140000F8FBFDBFCDCCCCCC00040240F8FFFDBF03
:1014100000000240F0B4044690F82000012838D0C3
:10142000012594F8210084F82050A84205D000231B
:1014300084F820300220F0BC70470227002625687F
:1014400084F82170A663276C2E68B84026F0010648
:10145000E76B2E60666878606B60E36A102E0BBFE6
:10146000AA60A960E960EA6053B12B6843F00E03FB
:101470002B602B68002043F001032B60F0BC704709
:101480002B6823F004032B602B6843F00A032B60C6
:10149000EFE70220F0BC704790F821200346022AB3
:1014A00006D004210022816380F8202001207047AB
:1014B000012170B44FF480751A681E6C1468B14035
:1014C00024F00E0414601468002024F00104146059
:1014D000DA6B51601D8470BC704700BF08B590F88E
:1014E00021200346022A03D0042201209A6308BD6A
:1014F000026845481168824221F00E0111601168AE
:1015000021F001011160414924D98A4255D014319A
:101510008A425ED014318A425DD014318A4253D05F
:1015200014318A4260D014318A4263D0824267D03B
:1015300001F567718A4240D014318A4249D0143192
:101540008A4248D014318A4214BF4FF480324FF49B
:10155000805233E08A4222D014318A4237D014318B
:101560008A423BD014318A422BD014318A4238D07F
:1015700014318A423BD082423FD001F567718A42E2
:101580000DD014318A4222D014318A4226D014312F
:101590008A4214BF4FF480324FF4805200E001229F
:1015A0001B494A604FF480715A6B19841AB118466E
:1015B0009047002008BD104608BD012215494A6029
:1015C000F0E74FF48052EBE74FF48052F6E7102239
:1015D000E6E71022F2E74FF48072EFE74FF48072F3
:1015E000DEE74FF48032DBE74FF48032E6E74FF47A
:1015F0008012D5E74FF48012E0E74FF08072CFE71A
:101600004FF08072DAE700BF80000240080002401D
:101610000000024000040240042270B4D0E90F61CF
:10162000346803688A4022421D6842D06A0740D568
:101630001A68910603D41A6822F004021A609B4AC1
:101640009B49934240F290808B4200F0EE8014312F
:101650008B4200F0F28014318B4200F0E1801431B3
:101660008B4200F0F58014318B4200F0FD80143184
:101670008B4200F00281934200F00B8102F562720E
:10168000934200F0D2801432934200F0D68014329C
:10169000934200F0C5801432934214BF4FF480236C
:1016A0004FF48043834A5360C36A002B5AD170BC05
:1016B000704702228A4022423FD0AA073DD51A68CD
:1016C000910606D401211A6822F00A021A6080F8F5
:1016D0002110764A764993426DD98B4200F0A7805B
:1016E00014318B4200F0978014318B4200F0A780B8
:1016F00014318B4200F0AF8014318B4200F0BA807D
:1017000014318B4200F0C280934200F0CB8002F58E
:101710006272934200F08B80143293427BD0143279
:10172000934200F08C801432934214BF4FF4003285
:101730004FF400525F4B5A6062E008228A40224216
:10174000B5D02A07B3D501244FF480751A6804FA7E
:1017500001F122F00E021A60036B7160846305844C
:10176000002BA4D070BC18478B425CD014318B4244
:1017700061D014318B4250D014318B4265D014317A
:101780008B426ED014318B427AD0934200F0848029
:10179000494A934247D0143293424CD01432934278
:1017A0003BD01432934214BF4FF480234FF4804354
:1017B000424A536078E78B423BD014318B4228D0A9
:1017C00014318B423ED014318B4247D014318B42BE
:1017D0004DD014318B4256D0934260D0364A93425A
:1017E00027D01432934214D0143293422AD01432A8
:1017F000934214BF4FF400324FF400522F4B5A6003
:101800000022836A80F82020002B3FF450AF70BC88
:1018100018472022F2E720228CE74FF48063C7E7C5
:101820004FF480633EE70423C2E704233AE7022231
:1018300080E70222E2E74023BAE7402332E74FF491
:10184000007277E74FF40072D8E74FF48043AFE7B8
:101850004FF4804326E74FF400526BE74FF40052F9
:10186000CCE74FF48023A3E74FF480231AE74FF42B
:101870000032C3E74FF400325CE74FF4800311E716
:101880004FF4800394E74FF40012B7E74FF40012CF
:1018900050E74FF0806305E74FF0806388E74FF033
:1018A0000072ABE74FF0007244E700BF80000240D7
:1018B0000800024000040240080402400000024008
:1018C0002DE9F04F0C6885B0002C00F0A2800026B6
:1018D000DFF828C23346DFF82882824FDFF824E29F
:1018E00004E0013334FA03F200F0938001229A40BD
:1018F00032EA040902EA0405F3D14C68122C00F222
:101900008B80122C0CD8DFE804F093C6C30A0B0BB3
:101910000B0B0B0B0B0B0B0B0B0B0BC0BD000026AB
:10192000FF2D00F28C8081464FEA830A0F24D9F8FC
:10193000002004FA0AFB22EA0B0206FA0AFA42EA3B
:101940000A02C9F80020D1F8049019F0805F00F075
:101950009780DCF818A023F003024AF0010ACCF8C3
:1019600018A0DCF818A002F180420AF0010ACDF8B4
:101970000CA002F5803203F0030ADDF80CB04FEA48
:101980008A0AD2F808B004FA0AF42BEA04044045A3
:1019900001941BD0544CA04200F08880534CA042CC
:1019A0007BD0534CA04200F08A80524CA04200F001
:1019B0008F80514CA0420CBF4FF0050B4FF0060B2F
:1019C000019C0BFA0AFA44EA0A040194019C19F4F6
:1019D000803F94603A6814BF2A43AA433A607A6809
:1019E00019F4003F14BF2A43AA437A60BA6819F475
:1019F000801F14BF2A43AA43BA6019F4001FFA6873
:101A00003BD01543FD600C68013334FA03F27FF4D8
:101A10006DAF05B0BDE8F08F744509D016D9DFF879
:101A2000E8904C4504D009F580394C457FF478AFF7
:101A30008C68DCB9FF2D4FF004067FF674AF4FEAD7
:101A4000830AAAF1200A00F104096FE7DFF8BC90CD
:101A50004C45EDD009F570294C45E9D0A9F5801920
:101A60004C457FF45DAF8C68002CE3D0012C4FF027
:101A700008060CBF0261426152E722EA0505FD60DB
:101A80000C682EE7CE680C364AE7CE68043647E786
:101A9000CE68083644E7CE6842E74FF0020B019C5F
:101AA0000BFA0AFA44EA0A0401948FE74FF0010B9B
:101AB000019C0BFA0AFA44EA0A04019486E74FF003
:101AC000030B019C0BFA0AFA44EA0A0401947DE72D
:101AD0004FF0040B019C0BFA0AFA44EA0A04019441
:101AE00074E700BF00040140000C014000100140F9
:101AF0000014014000180140001C01400010024089
:101B000000080140000022100000311000001210F7
:101B10008368194214BF01200020704702B90904EC
:101B200001617047C36801EA030221EA030141EA47
:101B300002410161704700BFF8B505460E461746E1
:101B4000721C2C6803D009E063695B0524D46369C7
:101B5000DB4313F00803F7D11846F8BD6369DB4394
:101B600013F00803F8D06369590515D4FFF73AF963
:101B7000C01B864201D3002EE2D1002220232A631B
:101B800085F83D3085F83E202B6C85F83C2043F0ED
:101B9000200301202B64F8BD00226FF48060202117
:101BA000236843F40073236060612A6385F83D1065
:101BB00085F83E202B6C85F83C2043F0040301207F
:101BC0002B64F8BDF8B505460E461746721C2C6806
:101BD00003D009E063695B0524D46369DB4313F038
:101BE0000203F7D11846F8BD6369DB4313F0020323
:101BF000F8D06369590515D4FFF7F4F8C01B864285
:101C000001D3002EE2D1002220232A6385F83D3043
:101C100085F83E202B6C85F83C2043F02003012002
:101C20002B64F8BD00226FF480602021236843F408
:101C30000073236060612A6385F83D1085F83E20BB
:101C40002B6C85F83C2043F0040301202B64F8BD85
:101C5000002800F0B580F8B590F83D30044603F058
:101C6000FF02002B00F094802422236884F83D209A
:101C70001A6822F001021A601A6842F400421A60DF
:101C80001A6822F400421A6000F0C0FC65684D4BEF
:101C90009D424CD84C4B984278D9421E6D00B2FB05
:101CA000F5F240F6FC7649492368A1FB001059681B
:101CB000013221F03F0141EA90415960196A800CDC
:101CC00021F03F01013008431862D969324221F402
:101CD0004F4121F0FF0160D10422002520260A4354
:101CE000DA611968D4E9072021F0C00102430A43F0
:101CF0001A609968D4E9030221F4034121F0FF013D
:101D000002430A439A60D968D4E9052021F0FF0113
:101D100002430A43DA601A68284642F001021A6058
:101D2000256484F83D60256384F83E50F8BD284B57
:101D300098422BD94FF49671244E2368A6FB0026B7
:101D4000B20C01FB02F1234F5A68A7FB017122F08C
:101D50003F0242EA96425A601A6A8909013122F02A
:101D60003F0211431962D969A66821F44F4121F05D
:101D7000FF01AEB9013805EB4502B0FBF2F20132CA
:101D8000C2F30B02D2B142F40042A6E70120F8BD33
:101D900080F83C2004F0F8FE66E7C2F30B029CE7F3
:101DA00005EB850202EB8205421EB2FBF5F2013221
:101DB000C2F30B0212B142F440428EE701228CE7DB
:101DC00001207047A08601007F841E0083DE1B4334
:101DD000FF083D00D34D62102DE9F047044682B064
:101DE0009A46884691460A9EFEF7FCFF94F83D30DD
:101DF000202B05D04FF00208404602B0BDE8F08726
:101E0000074605E0FEF7EEFFC01B192800F2F3803D
:101E100023689D69ED4315F00205F3D094F83C204A
:101E2000012AE7D0012284F83C201A68D20770D535
:101E30000021212510201A6822F400621A608B4AC2
:101E400084F83D5084F83E002164A4F82AA0618DF6
:101E5000E262E26AC4F82490082A218507D0012AA8
:101E600005D012F5803F02D0226B122A03D11A68E6
:101E700042F480721A60751C3DD15A69D007FCD5B6
:101E80002269B2F5804F49D108F0FE0119613A4646
:101E900031462046FFF796FE804630BB236801900E
:101EA0005969228D0191996901910199002A76D091
:101EB000751C40F081805A69100642D45A69510558
:101EC000F9D500226FF4806020215861226384F8E4
:101ED0003D1084F83E20236C84F83C2043F004033A
:101EE0002364236C042B00F0AB804FF001084046C4
:101EF00002B0BDE8F0875A69D107C1D4FEF772FF7E
:101F0000C01B8642C0F08480002E00F081802368D0
:101F1000B1E71A6842F001021A6089E74FEAE81255
:101F200002F0060242F0F0021A6131463A462046BB
:101F3000FFF702FE0028D8D123685FFA88F1196103
:101F4000A5E7606AB4F828C0054615F8012B0CF126
:101F5000FF311A61628D89B2013A92B262855A6983
:101F60006562550721850CD559B14278ACF1020C58
:101F70001A61628D0230013A92B2A4F828C0606200
:101F80006285751C28D15A69500705D45A695105D4
:101F900097D45A695007F9D5228D002A88D100219B
:101FA00020201A6842F400721A6084F83D0084F818
:101FB0003C1084F83E101FE75A691206C1D45A69D2
:101FC00052053FF57EAFFEF70DFFC01B86423FD3A3
:101FD000002E3DD023686BE75A695207DCD45A695A
:101FE00052053FF56EAFFEF7FDFEC01B86422FD3B4
:101FF00076B32368C5E72023256384F83D3084F851
:102000003E50236C84F83C5043F020032364F1E6F7
:1020100000222023226384F83D3084F83E20236C84
:10202000216843F0200384F83C2023640B68DE051C
:102030007FF55BAF4FF400734FF001082364DBE6DC
:1020400022684FF00108136843F400731360D3E66D
:1020500000222023226384F83D3084F83E20236C44
:1020600084F83C2043F0200323643AE70000FFFF9C
:10207000002800F0C3812DE9F04103680446DD0724
:1020800082B035D5A6494A6802F00C02042A00F055
:10209000EF804A6802F00C02082A00F0E5806368CD
:1020A000B3F5803F10D0002B00F00D81B3F5A02FC9
:1020B00000F08F819A4B1A6822F480321A601A68F5
:1020C00022F480221A6004E0954A136843F48033B6
:1020D0001360FEF787FE924E054605E0FEF782FE8E
:1020E000401B642800F2EB8033689A03F6D523681E
:1020F0009F0728D58A4A516811F00C0F00F08E8096
:10210000516801F00C01082900F084802369002B3C
:1021100000F025810122834B814E1A60FEF762FE9A
:10212000054605E0FEF75EFE401B022800F2C78070
:1021300033689807F6D53368626923F0F80343EAF9
:10214000C203336023681A071FD45D0741D5744B5F
:10215000DA69D0007DD50025734B1A68D10540F1AE
:102160009D80E368012B00F00B81002B00F0C580FF
:10217000052B6B4B1A6A00F0398122F001021A62BA
:102180001A6A22F004021A62FFE0A369002B50D001
:102190000122664B624E1A60FEF724FE054605E0FA
:1021A000FEF720FE401B022800F28980736A9B071D
:1021B000F6D55F4B5F4A1B68A2FB03235B0A0193C2
:1021C00000BF019B5A1E0192002BF9D123685D07C5
:1021D000BDD4E069D0B1524D6A6802F00C02082A01
:1021E00000F0E68002284FF00001534A00F0088119
:1021F0001160FEF7F7FD2C46054604E0FEF7F2FD00
:10220000401B02285BD823689B01F7D4002002B052
:10221000BDE8F0815268D6033FF578AF404A1268B6
:1022200095072FD52269012A2CD0012002B0BDE8E4
:10223000F0813E4A3A4E1360FEF7D4FD054604E0B5
:10224000FEF7D0FD401B022839D8736A9F07F7D4E8
:10225000BCE7DA69012542F08052DA61DB6903F0FC
:1022600080530093009B77E74A68D0037FF517AF50
:102270002B4A126891037FF53BAF6268002A7FF416
:1022800037AFD2E7264960690A6822F0F80242EACD
:10229000C0020A601A077FF558AF76E71A681F4632
:1022A00042F480721A60FEF79DFD06463B68DA052F
:1022B0003FF557AFFEF796FD801B6428F6D9032043
:1022C00002B0BDE8F08103F1804303F504331A68DE
:1022D0001E4622F480321A601A6822F480221A60A4
:1022E000FEF780FD054604E0FEF77CFD401B6428F8
:1022F000E5D833689B03F7D4F9E603F1804303F58F
:1023000004331A6A1F4622F001021A621A6A41F265
:10231000883822F004021A62FEF764FD064612E0D5
:10232000001002400000424200700040800442421F
:10233000D4020020D34D621060004242FEF752FDED
:10234000801B4045BBD83B6A9807F7D4002D3FF46B
:1023500040AF444AD36923F08053D36139E7424AFE
:10236000404E1360FEF73EFD054604E0FEF73AFDE1
:10237000401B0228A3D833689907F7D42368E2E604
:10238000384A136A43F001031362FEF72BFD41F252
:1023900088380646334F04E0FEF724FD801B404595
:1023A0008DD83B6A9B07F7D5002D3FF412AFD0E7DD
:1023B00001283FF42CAF6B68226A03F4803191420C
:1023C0007FF433AF606A03F47013181A18BF01204A
:1023D0001DE703F18043A3F53C331A6842F48022E1
:1023E0001A601A6842F480321A6072E642F00402FF
:1023F0001A621A6A42F001021A62C6E701207047A7
:102400001160FEF7EFFC064605E0FEF7EBFC801BD3
:1024100002283FF654AF2B689901F6D4236AB3F52E
:10242000803F05D16A68A16822F400320A436A60DD
:1024300001200C4D616A6A680B4322F474120B4947
:1024400013436B600860FEF7CDFC2C46054605E0A3
:10245000FEF7C8FC401B02283FF631AF23689A0103
:10246000F6D5D3E60010024000004242600042422E
:10247000002800F0AF805D4A2DE9F0411368044662
:1024800003F007038B420D4686B00DD2136823F08C
:1024900007030B431360136803F007038B4203D059
:1024A000012006B0BDE8F0812368980714D55907CC
:1024B00004D54F494A6842F4E0624A601A0704D5DD
:1024C0004B494A6842F460524A604949A0684A68E8
:1024D00022F0F00202434A60DB0720D56268444BD9
:1024E000012A1B6878D0022A71D09807D8D5404EAF
:1024F00041F28838736823F0030313437360FEF7D7
:1025000071FC074604E0FEF76DFCC01B404566D831
:102510007368626803F00C03B3EB820FF3D1334AA4
:10252000136803F00703AB4209D9136823F00703CC
:102530002B431360136803F00703AB42B0D1236849
:10254000590706D52A49E0684A6822F4E062024346
:102550004A601A0707D5264A2169536823F4605355
:1025600043EAC103536040F20122224B06ACADF8AE
:1025700004200FCB04E90F001D494A6802F00C0348
:10258000082B11D01C4B1A4A1C4852681C49C2F334
:102590000312805C1B4AC3400868136004F072FC9D
:1025A000002006B0BDE8F081C2F38343234413F852
:1025B000100CD30315D54A680F4BC2F3404203FBFE
:1025C00000F3224412F8142CB3FBF2F3DBE79E0174
:1025D0008DD465E7012070479F0388D460E703200E
:1025E0005FE7094B03FB00F3CDE700BF002002408B
:1025F00000100240B87A000800127A00A07A0008A1
:1026000004000020D402002000093D00044B0549CD
:102610005B68054AC3F30223CB5C1068D84070475F
:1026200000100240B07A0008D4020020044B054993
:102630005B68054AC3F3C223CB5C1068D84070477F
:1026400000100240B07A0008D40200200F220D4B87
:1026500002605A6810B402F0030242605A680A4CE1
:1026600002F0F00282605A6802F4E062C2605B68C5
:10267000DB0803F4E0630361236810BC03F0070385
:102680000B60704700100240002002402DE9F0412D
:102690000446006882B0C3072AD5394BDA69D700EF
:1026A0003DD5384B00251A68D60546D5344E336AD9
:1026B00013F440730FD0616801F440729A420BD05A
:1026C00001270020336A304A23F4407117601060FC
:1026D0003162D90745D46168294A136A23F44073EB
:1026E0000B4313621DB1D36923F08053D36120687B
:1026F000830706D52249A3684A6822F440421A4358
:102700004A6010F0100007D000201D4A616953682C
:1027100023F480030B43536002B0BDE8F081DA6913
:10272000012542F08052DA61DB6903F080530193A6
:10273000019B144B1A68D605B8D41A681F4642F498
:1027400080721A60FEF74EFB06463B68D805ADD492
:10275000FEF748FB831B642BF7D9032002B0BDE8CA
:10276000F081FEF73FFB41F28838074604E0FEF7B0
:1027700039FBC01B4045F0D8336A9A07F7D5AAE762
:10278000001002400070004040044242002855D032
:10279000F8B5436A0446002B41D00023C0E9043356
:1027A000002394F85110A36201F0FF0200293CD0ED
:1027B0001A46D4E90130022701260025E16800F419
:1027C000044003F482730343206901F4006138403C
:1027D0000B4361690343A06931400B4300F400716E
:1027E0000B43E16984F85170276A01F038010B430B
:1027F00007F0800721683B4313430A68000C00F090
:10280000040022F040020A600B604860CB69284651
:1028100023F40063CB61656584F85160F8BD4268BC
:10282000B2F5827FBCD0C361BAE784F8502020465D
:1028300004F0DCF9A36A03F40052BAE70120704700
:10284000002864D038B590F83D30044603F0FF020C
:10285000002B57D0022322682E4984F83D308A424B
:10286000136824D001F500618A4220D0B2F1804F74
:102870000BD0A1F598318A4207D001F580618A42D8
:1028800003D001F580618A4207D1A16823F070036B
:102890000B43216923F440730B43A569E068616829
:1028A00023F080032B431360D062916212E0A16891
:1028B00023F070030B43216923F440730B43A16998
:1028C00023F080030B431360E368D3626368936271
:1028D000636913630123536184F8463084F83E3002
:1028E00084F83F3084F8403084F8413084F8423036
:1028F00084F8433084F8443084F8453084F83D301F
:10290000002038BD80F83C2004F0AAF9A2E701209D
:10291000704700BF002C014090F83D30012B27D1BB
:102920000222036880F83D20DA68134942F0010270
:102930008B42DA6011D0114A93420ED0B3F1804F2E
:102940000BD0A2F59832934207D002F580629342F1
:1029500003D002F58062934204D19A6802F0070224
:10296000062A07D01A68002042F001021A60704758
:102970000120704700207047002C014000340140C6
:10298000704700BF002864D038B590F83D30044649
:1029900003F0FF02002B57D0022322682E4984F84F
:1029A0003D308A42136824D001F500618A4220D06C
:1029B000B2F1804F0BD0A1F598318A4207D001F5D2
:1029C00080618A4203D001F580618A4207D1A16803
:1029D00023F070030B43216923F440730B43A56973
:1029E000E068616823F080032B431360D06291623A
:1029F00012E0A16823F070030B43216923F44073B4
:102A00000B43A16923F080030B431360E368D36297
:102A100063689362636913630123536184F84630EA
:102A200084F83E3084F83F3084F8403084F84130F8
:102A300084F8423084F8433084F8443084F84530D8
:102A400084F83D30002038BD80F83C20FFF798FF27
:102A5000A2E70120704700BF002C014010B40446DB
:102A6000002948D190F83E3090F84220D8B2D3B235
:102A7000012803D1012B04D010BC7047012010BCE9
:102A80007047002946D1022384F83E3084F8423052
:102A90002368DA6842F00202DA600122186A01F063
:102AA0001F0102FA01F120EA01001862186A414A86
:102AB00001439342196212D002F5006293420ED094
:102AC000B3F1804F0BD0A2F59832934207D002F5B4
:102AD0008062934203D002F58062934204D19A68E7
:102AE00002F00702062A57D01A68002042F00102BD
:102AF00010BC1A607047042947D008290BBF90F812
:102B0000403090F8413090F8442090F84520D8B2F9
:102B1000D3B2ADE7042927D008293FD0022384F897
:102B2000413084F845300C291CD801A353F821F01A
:102B3000912A0008652B0008652B0008652B00080A
:102B4000732B0008652B0008652B0008652B000817
:102B5000652B0008652B0008652B0008652B000815
:102B60007F2B0008236898E7022384F83F3084F81D
:102B700043302368DA6842F00402DA608DE72368A4
:102B8000DA6842F01002DA6087E790F83F3090F898
:102B90004320D8B2D3B26BE700206DE7022223684E
:102BA00084F8402084F84420DA6842F00802DA60B1
:102BB00073E700BF002C014090F83C30012B00F07F
:102BC000C2800123F0B480F83C3003686AB3042A61
:102BD0006BD0082A1E6A0A6800F0908026F480569E
:102BE0004F68CC681E62DD691E6A25F4407545EAAF
:102BF00007251203240325F4704526F4005602F439
:102C00000052A4B22C433243DC611A62DC698D6845
:102C100024F44064DC61DA6942EA0522DA610023C7
:102C200080F83C30F0BC184670471E6ADFF81CC1C3
:102C300026F001060C684D68CA6863451E629F69EC
:102C40001E6A15D00CF5006C634511D0B3F1804FAE
:102C50000ED0ACF5983C63450AD00CF5806C63450A
:102C600006D00CF5806C634502D047F0010502E008
:102C700027F003073D43120125F0F00526F00A0670
:102C8000D2B204F00A042A4334439A611C629C695C
:102C90008D6824F00C049C619A692A439A61002390
:102CA00080F83C30F0BC184670471E6A4F6826F02A
:102CB00010060A68CC681E629D691E6A25F440757C
:102CC00045EA07251201240325F4704526F0A006E5
:102CD00002F0A002A4B22C4332439C611A629C69A8
:102CE0008D6824F440649C619A6942EA05229A61E5
:102CF000002380F83C30F0BC1846704726F48076FC
:102D00004D68CC681E62DF691E6A27F003073D43E9
:102D10001202240125F0F00526F4007602F4007278
:102D2000E4B22C433243DC611A62DC698D6824F022
:102D30000C04DC61DA692A43DA61002380F83C3054
:102D4000F0BC184670470220704700BF002C0140BD
:102D500090F83C30012B74D0F0B4022301240268B7
:102D600080F83C4080F83D3094680B6824F47F4440
:102D700024F07704602B946065D031D8402B48D084
:102D800021D9502B16D1156A166A4C6826F0010617
:102D9000CF681662936925F00A0123F0F00343EA35
:102DA0000713214393611162936823F0700343F08A
:102DB000570393600023012280F83C3080F83D20C7
:102DC000F0BC18467047202B02D01ED9302BF1D111
:102DD000916821F070010B4343F007039360E9E72A
:102DE000702B49D0B3F5005FE4D1D1E90153CC6831
:102DF00091682B4343EA042321F47F410B43936002
:102E0000936843F480439360D4E733F01001D1D149
:102E1000DEE7156A166A4C6826F00106CF6816626E
:102E2000936925F00A0123F0F00343EA07132143D5
:102E300093611162936823F0700343F0470393603A
:102E4000B8E702207047146A4D6824F01004CE6879
:102E500014629169136A21F4704123F0A00343EADC
:102E6000051341EA063191611362936823F0700300
:102E700043F0670393609DE7CC68D1E90153916803
:102E80002B4343EA042321F47F410B43936093686F
:102E900043F0770393608DE7704700BF704700BF32
:102EA000704700BF036810B51A690446910702D540
:102EB000DA6892075FD41A69500702D5DA685107B9
:102EC00046D41A69120702D5DA6810072ED41A6997
:102ED000D20602D5DA68D00618D41A69D10702D50D
:102EE000DA68D2075DD41A69100602D5DA681106CD
:102EF0005FD41A69520602D5DA68500661D41A699D
:102F0000910602D5DA68920643D410BD6FF0100125
:102F1000082219612277DB69204613F4407F64D0D0
:102F200003F0C2F8002223682277D6E76FF0080189
:102F3000042219612277DB692046990752D1FFF7F5
:102F4000ABFF2046FFF7AAFF002223682277BEE7E7
:102F50006FF004010222196122779B69204613F465
:102F6000407F3CD1FFF798FF2046FFF797FF0022F4
:102F700023682277A5E76FF0020101221961027729
:102F80009B699B0725D003F08FF8002223682277E6
:102F900091E76FF020022046BDE810401A6100F072
:102FA00065B86FF0010220461A6103F011FB236837
:102FB00099E76FF0800220461A6100F059F8236803
:102FC00097E76FF0400220461A61FFF769FF236818
:102FD00095E7FFF761FF2046FFF760FFD5E703F0B5
:102FE00063F8C4E703F060F8AEE7FFF755FF20464B
:102FF000FFF754FF96E700BF90F83C30012B2ED02E
:103000000222036830B480F83D205A680C68154DE0
:1030100022F070022243AB429C685A6011D0124ADF
:1030200093420ED0B3F1804F0BD0A2F59832934269
:1030300007D002F58062934203D002F5806293428A
:1030400004D14A6824F0800414439C6000230122C8
:1030500080F83C3080F83D2030BC18467047022094
:10306000704700BF002C014000340140704700BF92
:10307000704700BF002861D070B590F83D3004461D
:1030800003F0FF02002B51D02422236884F83D2056
:10309000DA68E06822F40052DA601969A26821F463
:1030A000405101431961D968D4E9045021F4B05169
:1030B0002A4321F00C0102430A43DA605A69A069ED
:1030C0001F4922F4407202438B425A6133D0FFF70A
:1030D0009DFA636800EB800000EB80009B00B0FB72
:1030E000F3F36422002620251648A0FB03C14909FA
:1030F00002FB11331B013233A0FB032309012268B9
:1031000001EB531393601369304623F4904313612A
:10311000536923F02A035361D36843F40053D36007
:10312000266484F83D5084F83E5070BD80F83C2001
:1031300003F0F0FDA8E7FFF779FACAE7012070472E
:10314000003801401F85EB512DE9F843044690F803
:103150003D00202868D18846002940D01746002A23
:103160003DD01D4694F83C30012B5DD02123012237
:103170004FF0000984F83C20C4F8409084F83D30BA
:10318000FDF730FEA3680646B3F5805FA784E784A9
:103190004DD00022E38C84F83C209BB2002B58D009
:1031A0002268691C1ED113681B06FCD5B8F1000FFC
:1031B00035D018F8013B5360E38C013B9BB2E384AC
:1031C000E38C9BB2002BECD1681C36D113685906F6
:1031D000FCD5202384F83D300020BDE8F883012091
:1031E000BDE8F88313681F06E0D42DB1FDF7FAFDA2
:1031F000801B85422268D4D220210025D368032079
:1032000023F4D073D360536923F00103536184F82E
:103210003D1084F83C5084F83E10BDE8F88339F83E
:10322000023BC3F30803C6E70220BDE8F883236925
:10323000002BAED1C1469846ABE713685B06C8D4F5
:10324000002DD9D0FDF7CEFD801B85422268BBD270
:10325000D2E72268B8E700BF90F83E30202B23D198
:1032600001B3FAB190F83C30012B1DD030B40023EB
:1032700022250468036380F83C30C285036480F82B
:103280003E50E568828545F480758162E56062693B
:10329000184642F001026261E36843F02003E360F4
:1032A00030BC70470120704702207047704700BF54
:1032B000704700BF704700BF08B50023406AC38550
:1032C000C384FFF7F7FF08BD704700BF8368B3F5FD
:1032D000805F3BD0826A002B2FD003685B6803F0CD
:1032E0007F031370836A01338362C38D013B9BB2FA
:1032F000C3854BBB10B52024026882B0D16821F091
:103300002001D160D16821F48071D160516921F030
:103310000101516180F83E40016B012921D1036315
:10332000D16821F01001D1601168C90623D4818DC4
:10333000FFF7CAFF002002B010BD0369002BCCD1FB
:1033400003685B681370CDE70020704703696BB9B1
:103350000268836A5268C2F3080223F8022B836270
:10336000C3E7FFF7A5FF002002B010BD0368826A23
:103370005B681370B6E70193136801935368019378
:10338000019BD4E770B5036804461A6882B016073B
:10339000D9685D694ED1960602D58D0600F1908000
:1033A000206B01280BD0160602D50D0600F1928085
:1033B000500602D54A0600F1AB8002B070BDD506BA
:1033C000F1D5C806EFD5002101911A6801925A681B
:1033D0000192019A5A6912F0400200F0D280A06B6B
:1033E0000268526892B2002AE7D0A58D9542E4D9CE
:1033F0008669E285202E16D02025DA6822F48072B4
:10340000DA605A6922F001025A615A6922F04002D8
:103410005A6184F83E502163DA6822F01002DA60C3
:10342000FEF73AF8A58DE18D2046691A89B2FFF7BB
:103430004BFFC2E705F0010501F490702843AFD0BF
:10344000D00705D5CE0503D5206C40F001002064DF
:1034500050072CD52DB1206C960740F00200206457
:1034600029D4160707D501F02000284303D0206C8B
:1034700040F008002064206C00289ED0900609D5FA
:103480008A0607D594F83E20222A03D12046FFF76A
:103490001DFF23685A69256C02F0400205F00805FB
:1034A000154340D12046FFF705FF256485E79007C7
:1034B000D7D5002DD5D0206C40F004002064D0E793
:1034C00090F83E30222B7FF478AF02B0BDE8704018
:1034D000FFF7FCBE94F83D20212A7FF46EAFA2686E
:1034E000B2F5805F6ED0226A511C216212785A6058
:1034F000E28C013A92B2E284002A7FF45EAFDA688D
:1035000022F08002DA60DA6842F04002DA6054E7C2
:103510002021DA68204622F04002DA6084F83D106B
:10352000FFF7C4FE49E7DA6822F49072DA605A695C
:1035300022F001025A61226B012A03D1DA6822F0DB
:103540001002DA600022202184F83E1022635A69BA
:10355000560612D55A69A06B22F040025A6160B13A
:103560001E4B4363FDF7BAFF00283FF426AFA06B64
:10357000436B02B0BDE8704018472046FFF79AFE43
:103580001BE7E08DE18D80B289B200293FF415AFD1
:10359000A18D081A81B200293FF40FAF2025D86809
:1035A00020F49070D860586920F00100586184F8C8
:1035B0003E502263DA68204622F01002DA60FFF7FC
:1035C00083FEFAE62269002A8DD1226A32F8021BB4
:1035D000C1F30801596022628AE700BFB9320008CE
:1035E00008B500F053FF002008BD00BF70B5446966
:1035F00002460B4686B094B1866986B1B0F9085090
:103600001269842D08BF0025D0E9001018BF0335CA
:10361000CDE90146009500F0DBFD06B070BDB2F9C2
:10362000084005AD842C08BF0024D2E9001018BF63
:103630000334128ACDE9004500F07AFE012814BF58
:103640000020059806B070BD08B5012838BF0120DC
:1036500001F0CEF8002008BD10B54468134682B0D2
:10366000026864B1CDE90024A1F10102B2FA82F24C
:1036700001215209084801F0ADFC02B010BD0092D2
:10368000A1F10102B2FA82F201215209024801F0CD
:103690004FFC02B010BD00BF347C00084FF0FF317A
:1036A000002200F10803C0E9033381600260436037
:1036B000704700BF00230361704700BF436810B428
:1036C0009C6802688C609C6801324B606160996004
:1036D00010BC08610260704730B40D686B1C10D0DC
:1036E00000F108031C465B681A68AA42FAD902680E
:1036F0004B60013299608C606160086130BC02608F
:10370000704704696368F2E7036910B4D0E90112F5
:103710005C688A6051600021844208BF5A601A6860
:103720000161013A1A60186810BC704770B5044610
:10373000006CA66B28B92568002D2ED00136A66333
:1037400070BD154602467DB9A06803F0E9FCA36888
:10375000216C62680B449342A3601AD3226801363D
:103760002846A260A66370BDE06803F0D9FC226C15
:10377000E36821689B1A8B42E360C2F1000202D227
:1037800063681A44E260022D0CD001360020A66363
:1037900070BD01362846A66370BD606801F0C4F9AB
:1037A0006560CBE7012E38BF01260020C7E700BFC8
:1037B00040B94FF0500383F31188BFF36F8FBFF30D
:1037C0004F8FFEE730B51C4683B0E3B1034672B1BC
:1037D00011B3482001900198482826D04FF050039B
:1037E00083F31188BFF36F8FBFF34F8FFEE700297C
:1037F00042D148220192019A482AEFD10120224663
:1038000084F8460014E04FF0500383F31188BFF3AF
:103810006F8FBFF34F8FFEE74FF0500383F3118894
:10382000BFF36F8FBFF34F8FFEE7012084F8460090
:10383000C4E90F31226001F08DFCD4E90F32FF257D
:10384000002003FB02F321689A1A0A440B44A06388
:10385000C4E90131E26004F1100084F8445084F8B6
:103860004550FFF71BFF04F12400FFF717FF01F09D
:1038700093FC204603B030BD4FF0500383F3118812
:10388000BFF36F8FBFF34F8FFEE700BF2DE9F04707
:1038900084B00192002800F0AC8088461F460446A0
:1038A000002900F09980022F0BD1E36B012B08D087
:1038B0004FF0500383F31188BFF36F8FBFF34F8F27
:1038C000FEE701F021F98246002800F09B804FF0CE
:1038D000000ADFF8C09204F1240601F03BFCA26B61
:1038E000E36B9A42C0F0F480022F00F0F180019D5A
:1038F000002D00F04A8102ADBAF1000F00F0E48023
:1039000001F04AFC00F048FE01F024FC94F8443039
:10391000FF2B04BF002384F8443094F84530FF2B7C
:1039200004BF002384F8453001F036FC284601A985
:1039300001F09CF8002840F0E88001F00BFCA26B3D
:10394000E36B9A426BD001F027FC01F003FC94F882
:1039500045506DB2002D05DC12E06B1E13F0FF0F19
:103960005DB20DD0636A5BB1304601F037F80028D4
:10397000F3D001F0C1F86B1E13F0FF0F5DB2F1D16F
:10398000FF2384F8453001F007FC01F0E3FB94F8D5
:1039900044506DB2002D15DD04F1100A04E06B1ED9
:1039A00013F0FF0F5DB20DD023695BB1504601F0FB
:1039B00015F80028F3D001F09FF86B1E13F0FF0FED
:1039C0005DB2F1D1FF2384F8443001F0E5FB00F053
:1039D0008DFE4FF0010A80E7036C002B3FF463AFCC
:1039E0004FF0500383F31188BFF36F8FBFF34F8FF6
:1039F000FEE74FF0500383F31188BFF36F8FBFF3DF
:103A00004F8FFEE7019B002B3FF463AF4FF0500355
:103A100083F31188BFF36F8FBFF34F8FFEE704F17D
:103A2000100A01F0B9FB5046019900F037FF01F090
:103A300091FB94F845506DB2002D05DC12E06B1E31
:103A400013F0FF0F5DB20DD0636A5BB1304600F03A
:103A5000C5FF0028F3D001F04FF86B1E13F0FF0FE5
:103A60005DB2F1D1FF2384F8453001F095FB01F000
:103A700071FB94F844506DB2002D05DC12E06B1E12
:103A800013F0FF0F5DB20DD023695BB1504600F01B
:103A9000A5FF0028F3D001F02FF86B1E13F0FF0FE5
:103AA0005DB2F1D1FF2384F8443001F075FB00F0E2
:103AB0001DFE00288DD14FF08053C9F80030BFF3B0
:103AC0004F8FBFF36F8F84E7284600F0C5FF17E7DD
:103AD0003A4641462046FFF729FE626A72B938B17C
:103AE0004FF080522B4B1A60BFF34F8FBFF36F8F95
:103AF00001F052FB012004B0BDE8F08704F124007E
:103B000000F06CFF0028F3D0EAE701F023FB94F803
:103B100045506DB2002D11DD04F1240604E06B1E4A
:103B200013F0FF0F5DB209D0636A3BB1304600F07D
:103B300055FF0028F3D000F0DFFFF0E7FF2384F803
:103B4000453001F029FB01F005FB94F844506DB2BB
:103B5000002D11DD04F1100604E06B1E13F0FF0FC1
:103B60005DB209D023693BB1304600F037FF002831
:103B7000F3D000F0C1FFF0E7FF2384F8443001F0F8
:103B80000BFB00F0B3FD0020B5E701F005FB284674
:103B9000B1E700BF04ED00E02DE9F04385B00192EC
:103BA000002800F0F5800E460446002900F08A80C7
:103BB00000F0AAFF002879D001F0CCFAA56B002D07
:103BC00040F04881019B002B00F0DC8002A800F04F
:103BD00043FFDFF8CC8204F1240701F0DDFA00F0A6
:103BE000DBFC01F0B7FA94F84430FF2B04BF00234C
:103BF00084F8443094F84530FF2B04BF002384F848
:103C0000453001F0C9FA01A902A800F02FFF0028F1
:103C100065D101F09FFAA36B002B00F0C28001F088
:103C2000BBFA01F097FA94F845506DB2002D05DC0F
:103C300012E06B1E13F0FF0F5DB20DD0636A5BB133
:103C4000384600F0CBFE0028F3D000F055FF6B1E85
:103C500013F0FF0F5DB2F1D1FF2384F8453001F07E
:103C60009BFA01F077FA94F844506DB2002D15DDFF
:103C700004F1100904E06B1E13F0FF0F5DB20DD0CC
:103C800023695BB1484600F0A9FE0028F3D000F09C
:103C900033FF6B1E13F0FF0F5DB2F1D1FF2384F8E9
:103CA000443001F079FA00F021FD62E0019B002B25
:103CB00082D04FF0500383F31188BFF36F8FBFF3AF
:103CC0004F8FFEE7036C002B3FF472AF4FF05003B1
:103CD00083F31188BFF36F8FBFF34F8FFEE701F0BF
:103CE00039FA94F845506DB2002D05DC12E06B1ED8
:103CF00013F0FF0F5DB20DD0636A5BB1384600F080
:103D00006DFE0028F3D000F0F7FE6B1E13F0FF0FDE
:103D10005DB2F1D1FF2384F8453001F03DFA01F0A6
:103D200019FA94F844506DB2002D15DD04F1100914
:103D300004E06B1E13F0FF0F5DB20DD023695BB181
:103D4000484600F04BFE0028F3D000F0D5FE6B1E75
:103D500013F0FF0F5DB2F1D1FF2384F8443001F07E
:103D60001BFA00F0C3FC01F0F5F9A36B53B101F0AD
:103D700013FA01F0EFF9A56B002D6BD1019B002B1D
:103D80007FF42BAF01F008FA002005B0BDE8F08306
:103D90004FF0500383F31188BFF36F8FBFF34F8F42
:103DA000FEE701F0F9F93846019900F077FD01F0DE
:103DB000D1F994F845506DB2002D05DC12E06B1E70
:103DC00013F0FF0F5DB20DD0636A5BB1384600F0AF
:103DD00005FE0028F3D000F08FFE6B1E13F0FF0FDE
:103DE0005DB2F1D1FF2384F8453001F0D5F901F03F
:103DF000B1F994F844506DB2002D15DD04F11009AD
:103E000004E06B1E13F0FF0F5DB20DD023695BB1B0
:103E1000484600F0E3FD0028F3D000F06DFE6B1E75
:103E200013F0FF0F5DB2F1D1FF2384F8443001F0AD
:103E3000B3F900F05BFC00289BD14FF08053C8F829
:103E40000030BFF34F8FBFF36F8F01F083F9A56B85
:103E5000002D93D0226C5AB1E168636811449942F5
:103E6000E16028BF2168304628BFE16003F058F9BF
:103E7000013DA56323691BB901F08EF9012084E798
:103E800004F1100000F0AAFD0028F5D04FF0805298
:103E9000034B1A60BFF34F8FBFF36F8FECE700BF88
:103EA00004ED00E0134B1A687AB19A68AAB11A6956
:103EB000AAB19A69AAB11A6AAAB19A6AAAB11A6B86
:103EC00012B19A6B9AB17047062210B403EBC20488
:103ED000606043F8321010BC70470122F5E70222FF
:103EE000F3E70322F1E70422EFE70522EDE70722DB
:103EF000EBE700BFA018002070B504460E4615463B
:103F000001F028F994F84430FF2B04BF002384F813
:103F1000443094F84530FF2B04BF002384F845302B
:103F200001F03AF9A36B002B45D001F013F994F896
:103F300045506DB2002D15DD04F1240604E06B1E22
:103F400013F0FF0F5DB20DD0636A5BB1304600F035
:103F500045FD0028F3D000F0CFFD6B1E13F0FF0FDE
:103F60005DB2F1D1FF2384F8453001F015F901F07D
:103F7000F1F894F844506DB2002D15DD04F11006EF
:103F800004E06B1E13F0FF0F5DB20DD023695BB12F
:103F9000304600F023FD0028F3D000F0ADFD6B1E8D
:103FA00013F0FF0F5DB2F1D1FF2384F84430BDE878
:103FB000704001F0F1B82A46314604F1240000F0C7
:103FC000B5FCB2E72DE9F0413D4C054601F0C2F8E1
:103FD0002368013323606368ABB3D4F800314BB37B
:103FE000EB6A04F108060122D4F80411D4F8087130
:103FF0009A4003EB830306EB830017434A1C291DF9
:10400000C4F80421C4F80871FFF758FB01F0C4F8A4
:10401000D4F8003163B16268EB6AD26A9A4207D27F
:104020004FF08052274B1A60BFF34F8FBFF36F8F53
:10403000BDE8F0816268EB6AD26A04F108069A4230
:1040400098BF6560CFE765602368012BC8D104F194
:1040500008063046FFF722FB04F11C00FFF71EFBA9
:1040600004F13000FFF71AFB04F14400FFF716FBE0
:1040700004F15800FFF712FB04F16C00FFF70EFB90
:1040800004F1940804F18000FFF708FB04F1A8078D
:104090004046FFF703FB3846FFF700FB04F1BC0086
:1040A000FFF7FCFA04F1D000FFF7F8FA04F1E4009E
:1040B000FFF7F4FAC4F8F880EB6AC4F8FC7092E7F2
:1040C0005803002004ED00E0F8B51C4C0546D4F878
:1040D0000C6160680F460430FFF716FB48B90122F7
:1040E0006168D4F80831C96A8A4023EA0203C4F837
:1040F00008316B1C18D0636875195D6007D3D4F85C
:10410000FC006168BDE8F8400431FFF7E5BAD4F877
:10411000F80061680431FFF7DFFAD4F81031AB42E0
:1041200088BFC4F81051F8BD002FE4D0616804487E
:104130000431BDE8F840FFF7C1BA00BF58030020C2
:104140003C04002080B54FF080571F4C1F4ED4F820
:1041500014315BB300F0FEFFD4F8DC30DD68281DBD
:10416000FFF7D2FA2368013B2360D4F81431013BF6
:10417000C4F8143101F010F895F8513063B1012BF7
:104180001DD0022BE3D04FF0500383F31188BFF30F
:104190006F8FBFF34F8FFEE7286B01F087F928463A
:1041A00001F084F9D4F81431002BD3D1A368012B8A
:1041B000CDD93760BFF34F8FBFF36F8FC7E7284666
:1041C00001F074F9C3E700BF5803002004ED00E0DC
:1041D0002DE9F04383B00C9CDDE90A57C7B174B1F7
:1041E000994654230193019B542B1AD04FF050034E
:1041F00083F31188BFF36F8FBFF34F8FFEE74FF04C
:10420000500383F31188BFF36F8FBFF34F8FFEE727
:104210004FF0500383F31188BFF36F8FBFF34F8FBD
:10422000FEE70223164684F8513027630A7806F128
:10423000804384F83420013B0A7807EB83038046EF
:1042400023F00706002A4DD04B7884F835304B78A0
:10425000002B47D08B7884F836308B78002B41D0F8
:10426000CB7884F83730CB78002B3BD00B7984F8AF
:1042700038300B79002B35D04B7984F839304B79B5
:10428000002B2FD08B7984F83A308B7953B3CB79CC
:1042900084F83B30CB792BB30B7A84F83C300B7A23
:1042A00003B34B7A84F83D304B7ADBB18B7A84F8D8
:1042B0003E308B7AB3B1CB7A84F83F30CB7A8BB176
:1042C0000B7B84F840300B7B63B14B7B84F841302F
:1042D0004B7B3BB18B7B84F842308B7B13B1CB7B28
:1042E00084F84330062D28BF06250027E562656463
:1042F000201D84F84370A764FFF7DCF9C5F10705BA
:1043000004F11800FFF7D6F94A464146E764304603
:10431000A561246184F85070646200F0F1FE0346E8
:1043200020462360FFF74EFE204603B0BDE8F08331
:104330002DE9F0479700054638460C461E4601F029
:1043400003F8002800F097808146542000F0FCFF1D
:104350008046002800F093800023C0F8309080F859
:104360005130237880F834302378002B4DD0637897
:1043700080F835306378002B47D0A37880F836304A
:10438000A378002B41D0E37880F83730E378002B16
:104390003BD0237980F838302379002B35D06379EE
:1043A00080F839306379002B2FD0A37980F83A3028
:1043B000A37953B3E37980F83B30E3792BB3237AC5
:1043C00080F83C30237A03B3637A80F83D30637A17
:1043D000DBB1A37A80F83E30A37AB3B1E37A80F8F8
:1043E0003F30E37A8BB1237B80F84030237B63B18D
:1043F000637B80F84130637B3BB1A37B80F8423024
:10440000A37B13B1E37B80F84330089C4FF0000A94
:10441000062C28BF062408F10400C8F82C40C8F870
:10442000444088F843A0C8F848A0FFF743F908F1D2
:104430001800FFF73FF9391F4944C4F10704C8F8D1
:104440004CA021F0070032462946C8F8184088F8E9
:1044500050A0C8F81080C8F8248000F051FE099BD5
:10446000C8F800000BB1C3F800804046FFF7AAFD72
:104470000120BDE8F0874FF0FF30BDE8F0874846E7
:1044800001F014F84FF0FF30F3E700BF70B50025DE
:1044900084B002AA684601A9CDE9005501F07AFD71
:1044A000019ACAB1009C74B1542303930399029BEF
:1044B00054291AD04FF0500383F31188BFF36F8F44
:1044C000BFF34F8FFEE74FF0500383F31188BFF324
:1044D0006F8FBFF34F8FFEE74FF0500383F31188C8
:1044E000BFF36F8FBFF34F8FFEE70220274903F121
:1044F0008043013B02EB83032263616384F8510034
:10450000C4E91155201D84F8385084F84350E56201
:1045100023F00706FFF7CEF804F11800FFF7CAF8FA
:1045200007232A461A49E564A36130462461646280
:1045300084F8505000F0E4FD034620462360FFF766
:1045400041FD00F0A3FC012803D0013015D004B0D8
:1045500070BD4FF0500282F31188BFF36F8FBFF32D
:104560004F8F4FF0FF310B4AC2F81011C2F8000113
:10457000C2F80C5100F07AFEE9E74FF0500383F3E4
:104580001188BFF36F8FBFF34F8FFEE749444C454F
:104590004541000858030020034AD2F8183101337E
:1045A000C2F81831704700BF58030020014BD3F800
:1045B0000C017047580300202DE9F047494CD4F80E
:1045C0001831002B5DD1D4F80C610136C4F80C61B0
:1045D000D6B9D4F8F8301B68002B6CD1D4F8F83079
:1045E000D4F8FC20C4F8F820C4F8FC30D4F820310A
:1045F0000133C4F82031D4F8F8301B68002B68D19F
:104600004FF0FF33C4F81031D4F81031B34246D81C
:10461000D4F8F8301D68002D56D000254FF0010960
:10462000DFF8C48021E05046FFF76EF8BB6A07F15F
:1046300018000BB1FFF768F8F86AD4F8082109FAF6
:1046400000F300EB80001343514608EB8000C4F8F0
:104650000831FFF733F86268D4F8F830F96AD26AA3
:104660001B68914228BF012573B3D4F8F830DB688A
:10467000DF687B6807F1040A9E42D4D2C4F8103187
:104680000EE00025D4F824310133C4F82431D4F8E5
:104690001C31002B0CBF28460120BDE8F087002507
:1046A0006368DB6A03EB830304EB83039B68022BE1
:1046B00028BF0125EBE74FF0500383F31188BFF3C8
:1046C0006F8FBFF34F8FFEE74FF0FF33C4F8103109
:1046D000E6E7D4F8F830DB68DB685B68C4F81031D3
:1046E00092E700BF58030020600300202DE9F0414D
:1046F0003D4CD4F8183143B94FF0500383F311887F
:10470000BFF36F8FBFF34F8FFEE700F023FDD4F8A8
:104710001831013BC4F81831D4F81831002B46D1B8
:104720002368002B43D0D4F8BC3083B3012604F1B6
:104730000807D4F8C830DD6805F1040805F1180051
:10474000FEF7E2FF4046FEF7DFFFE86AD4F80821F3
:1047500006FA00F300EB80001343414607EB8000AC
:10476000C4F80831FEF7AAFF6368EA6ADB6A9A4276
:1047700023D3C4F81C61D4F8BC30002BD9D1D4F8B1
:10478000F8301B6843BB4FF0FF33C4F81031D4F846
:1047900024514DB10126FFF70FFF08B1C4F81C6189
:1047A000013DF8D1C4F82451D4F81C3153B9002488
:1047B00000F0F2FC2046BDE8F081D4F8BC30002BBC
:1047C000B7D1DCE74FF08052084B1A60BFF34F8F30
:1047D000BFF36F8F0124EBE7D4F8F830DB68DB68B8
:1047E0005B68C4F81031D2E75803002004ED00E004
:1047F00008B5B0B10F4BD3F8181141B14FF05003C9
:1048000083F31188BFF36F8FBFF34F8FFEE7D3F8A9
:1048100018210132C3F81821FFF756FCFFF766FF95
:1048200038B94FF08052044B1A60BFF34F8FBFF37B
:104830006F8F08BD5803002004ED00E0164AD2F83F
:1048400018311BB10123C2F81C317047C2F81C316A
:10485000D2F80831B3FA83F3DBB2C3F11F0303EBE1
:10486000830302EB830081689B0041B94FF0500342
:1048700083F31188BFF36F8FBFF34F8FFEE7C168DB
:104880001344496810339942C16008BF4968CB6836
:1048900008BFC160536070475803002028B370B54B
:1048A000204C0D4661681831FEF716FFD4F80C61F4
:1048B00060680430FEF728FF48B901226168D4F827
:1048C0000831C96A8A4023EA0203C4F808316B1C24
:1048D00014D06368AD195D6017D3D4F8FC0061682B
:1048E000BDE870400431FEF7F7BE4FF0500383F38C
:1048F0001188BFF36F8FBFF34F8FFEE761680A48DF
:104900000431BDE87040FEF7D9BED4F8F800616804
:104910000431FEF7E1FED4F810319D4238BFC4F8EF
:10492000105170BD580300203C040020F8B5002849
:104930003ED01746274C0D4661681831FEF7BEFE83
:10494000D4F80C6160680430EFB1FEF7DDFE00289A
:1049500039D14FF0FF3501226168D4F80831C96AB6
:104960008A4023EA0203C4F808316B1C29D063682B
:1049700075195D600FD3D4F8FC006168BDE8F8409C
:104980000431FEF7A9BEFEF7BFFE0028E3D063683E
:1049900075195D60EFD2D4F8F80061680431FEF754
:1049A0009BFED4F810319D4201D2C4F81051F8BDDD
:1049B0004FF0500383F31188BFF36F8FBFF34F8F16
:1049C000FEE7002FD3D0616803480431BDE8F8400A
:1049D000FEF774BE580300203C040020F8B5C368FD
:1049E000DD686DB31B4C05F118063046FEF78CFEF2
:1049F000D4F8183173B1314604F1BC00FEF75EFE05
:104A00006368EA6ADB6A9A428ABF01200020C4F820
:104A10001C01F8BD2E1D3046FEF776FE0123E86A24
:104A2000D4F80871834004F1080200EB80003B4396
:104A3000314602EB8000C4F80831FEF73FFEDFE7A5
:104A40004FF0500383F31188BFF36F8FBFF34F8F85
:104A5000FEE700BF58030020034BD3F82021D3F812
:104A60000C31C0E90023704758030020F8B500B3AB
:104A70000D46A9B1044600F06DFB2B681D4A591C78
:104A8000D2F80C012CD0D4E90071D2F82061B742E1
:104A900018D0814216D8012600F07EFB3046F8BDC2
:104AA0004FF0500383F31188BFF36F8FBFF34F8F25
:104AB000FEE74FF0500383F31188BFF36F8FBFF30E
:104AC0004F8FFEE7461AB3420FD91B1AD2F82001C6
:104AD000D2F80C210B442B600026C4E90002DBE76E
:104AE000002600F059FB3046F8BD002301262B605C
:104AF000D2E700BF580300200122024BC3F81C215B
:104B0000704700BF58030020064BD3F8002132B194
:104B1000D3F81831002B0CBF022000207047012071
:104B2000704700BF58030020C8B1F8B5274D0446B0
:104B30006B68834208D04FF0500383F31188BFF3B2
:104B40006F8FBFF34F8FFEE79B6C53B1C16A426C0E
:104B5000013B9142836400D063B10020F8BD002086
:104B600070474FF0500383F31188BFF36F8FBFF38B
:104B70004F8FFEE7071D3846FEF7C6FD70B9E06AA5
:104B800000EB800305EB83039B683BB90122D5F85A
:104B90000831824023EA0203C5F808310126636C1C
:104BA000D5F808C10A48394606FA03F2E362C3F1B0
:104BB000070703EB830342EA0C0200EB8300A761C3
:104BC000C5F80821FEF77AFD3046F8BD58030020ED
:104BD000600300202DE9F0414FF000081E4E84B024
:104BE0000CE0DB68DC681F68251D2846FEF78CFD9D
:104BF000636A20469847E369012B09D033681A6835
:104C0000002AEED1B268B360326004B0BDE8F08132
:104C1000A3693B449F4206D2294630686360246101
:104C2000FEF75AFDEAE7736863B1CDE901870394A3
:104C3000FFF76AFF002370681A4601A9FEF726FEF7
:104C40000028DBD14FF0500383F31188BFF36F8F3F
:104C5000BFF34F8FFEE700BF800400202DE9F04F27
:104C60004FF080580026874CDFF81C9287B02368ED
:104C70001F68002F00F09380DB681F68FFF78CFC33
:104C8000FFF794FCE3680546834200F29780874271
:104C9000E06040F2A58000226068791BFFF72CF9E4
:104CA000FFF724FD28B9C9F80080BFF34F8FBFF389
:104CB0006F8F002269466068FEF76EFF0028D6D02D
:104CC000009B002BF5DB029D6B6913B1281DFEF7DD
:104CD0001BFDFFF76BFCE3680746984274D3009B0B
:104CE000E760092BE5D801A252F823F0154D000822
:104CF000154D0008154D0008B34C0008714D000813
:104D00008F4D0008154D0008154D0008B34C0008E4
:104D1000714D0008019BAA692D6199182CBF0120D3
:104D20000020B942696052D8FB1A9A426CD86B6A6B
:104D300028469847EB69012BBBD163687BB1AB690F
:104D4000019A03961344CDE90435FFF7DDFE0023F5
:104D500060681A4603A9FEF799FD0028A9D14FF013
:104D6000500383F31188BFF36F8FBFF34F8FFEE7BC
:104D7000019BAB61002B76D03B44BB4294BFA06843
:104D800020686B602D61291DFEF7A6FC91E795F860
:104D90002830002B8DD1284600F088FB89E7FFF7EB
:104DA000FBFBFFF703FCE3680546834206D8A368D4
:104DB000E5601A68B2FA82F252096DE7FFF70AFF5E
:104DC000E560FFF793FC74E7FFF704FF87E7BB425A
:104DD00001D90028ABD02068291DFEF77DFC68E7CB
:104DE000FFF784FC2368DB68D3F80CA00AF1040BFE
:104DF0005846FEF789FCDAF81C30012B09D05046E2
:104E0000DAF82430984754E7A068291DFEF764FCBF
:104E10004FE7DAF81830CAF810A0FA18AA42CAF810
:104E2000042004D959462068FEF756FCE7E7ED1B3D
:104E3000AB4221D863686BB1CDE90367CDF814A00C
:104E4000FFF762FE002360681A4603A9FEF71EFD05
:104E50000028D4D14FF0500383F31188BFF36F8F34
:104E6000BFF34F8FFEE74FF0500383F31188BFF37A
:104E70006F8FBFF34F8FFEE75946A068FEF72CFCFB
:104E8000BDE700BF8004002004ED00E0F0B5244C35
:104E900089B000F05FF9676837B300F07DF96368A7
:104EA000CBB1002507AA06A905A8CDE9055501F053
:104EB0007DF8DDE905120220CDE9012100902B46A5
:104EC000079A18491848FFF783F9C4F8F80010B199
:104ED000012009B0F0BD4FF0500383F31188BFF3F8
:104EE0006F8FBFF34F8FFEE704F11006304604F1D9
:104EF0002405FEF7D3FB2846FEF7D0FB0C210A2041
:104F0000009704F1380304F180022660A560FEF7E3
:104F10004FFC60600028C0D00449FEF7C3FFBCE727
:104F200080040020D47A00085D4C0008CC7A000888
:104F30002DE9F04F814685B02C200E4690461F4645
:104F400000F002FA0446A0B1BEB1204D00F002F913
:104F50006B68DBB100F020F90E9BC4E90668636260
:104F6000C4F800902762201DFEF7A4FB002384F8FC
:104F70002830204605B0BDE8F08F4FF0500383F392
:104F80001188BFF36F8FBFF34F8FFEE705F1100B52
:104F9000584605F1240A0393FEF780FB5046FEF7BE
:104FA0007DFB039B0C2100930A2005F1380305F1DA
:104FB0008002C5F800B0C5F808A0FEF7F9FB6860EC
:104FC0000028C7D00249FEF76DFFC3E78004002028
:104FD000CC7A00082DE9F04F2C2487B00594059D6C
:104FE000119C2C2D08D04FF0500383F31188BFF390
:104FF0006F8FBFF34F8FFEE7E4B10E4619B3264D16
:105000001F468146904600F0A5F86B6823B300F078
:10501000C3F8109B201D6362C4E90668C4F80090C1
:105020002762FEF747FB0123204684F8283007B0AB
:10503000BDE8F08F4FF0500383F31188BFF36F8FFB
:10504000BFF34F8FFEE74FF0500383F31188BFF398
:105050006F8FBFF34F8FFEE705F1100B584605F138
:10506000240A0393FEF71AFB5046FEF717FB039B37
:105070000C2100930A2005F1380305F18002C5F8E0
:1050800000B0C5F808A0FEF793FB68600028BED00A
:105090000249FEF707FFBAE780040020CC7A000837
:1050A00006480068006880F3088862B661B6BFF3FE
:1050B0004F8FBFF36F8F00DF00BF000008ED00E0EF
:1050C00000220E4B82B01B680192013308D04FF0D2
:1050D000500383F31188BFF36F8FBFF34F8FFEE749
:1050E0004FF0500383F31188BFF36F8FBFF34F8FDF
:1050F000019B002BFCD002B0704700BF08000020CD
:1051000010B44FF08074074B21F0010140F8044CBB
:1051100040F8081C40F8202C40F80C3C10BC4038EB
:10512000704700BFC15000080000000000000000F0
:10513000074B19680868B0E8F00F80F30988BFF3DF
:105140006F8F4FF0000080F311884EF00D0E704706
:105150005C0300204FF0500383F31188BFF36F8F7F
:10516000BFF34F8F0A4A13680133012B136000D03D
:105170007047084B1B6813F0FF0FF9D04FF0500336
:1051800083F31188BFF36F8FBFF34F8FFEE700BF2C
:105190000800002004ED00E0084A136843B94FF00E
:1051A000500383F31188BFF36F8FBFF34F8FFEE778
:1051B000013B13600BB983F311887047080000208E
:1051C000EFF30980BFF36F8F0D4B1A6820E9F00FE2
:1051D00010602DE908404FF0500080F31188FFF770
:1051E0002DFB4FF0000080F31188BDE808401968DE
:1051F0000868B0E8F00F80F30988BFF36F8F70473D
:105200005C03002008B54FF0500383F31188BFF30F
:105210006F8FBFF34F8FFFF7CFF918B14FF0805268
:10522000024B1A60002383F3118808BD04ED00E0EF
:105230000023072110B4084A084C09481360236072
:105240000368084C0848A4FB03439B09013B036027
:1052500010BC1160704700BF10E000E018E000E0F3
:10526000D4020020D34D621014E000E030B5FF20DE
:105270000724314B314A197885B0C9B20291546084
:1052800018701B78DBB28DF807309DF807309DF859
:10529000071003F05003090648BF062113700ED50E
:1052A0009DF8073008465B00DBB28DF807309DF8AB
:1052B000073001391B06F3D4032809D050604FF0A2
:1052C000500383F31188BFF36F8FBFF34F8FFEE757
:1052D0004FF4407000240299174D194BC9B2297040
:1052E0001968506041F4700119601A68154D42F058
:1052F00070421A60FFF79CFF2C60FFF7D1FEFFF7AA
:105300009DFA2B680394013308D04FF0500383F3C8
:105310001188BFF36F8FBFF34F8FFEE74FF050033D
:1053200083F31188BFF36F8FBFF34F8F039B002B65
:10533000FCD0002005B030BD00E400E07C0500207A
:1053400020ED00E0080000202DE9F0410446FFF7C1
:1053500023F9544BD3F8081C002939D0D3F80C7C1E
:105360003C422FD174B304F1080566071CBF25F039
:105370000705083535B3D3F814CCAC4522D3D3F8A0
:10538000000C494A03E0066826B1024630464468EC
:10539000AC42F8D3884215D00646A4EB050E56F869
:1053A000088BBEF1100FC2F8008050D94219540783
:1053B0002FD04FF0500383F31188BFF36F8FBFF3EB
:1053C0004F8FFEE7FFF792F900263046BDE8F081E7
:1053D0005F0757D0DA1D22F00702104603F540613F
:1053E0004FF000460025083921F007018A1AC3F85A
:1053F000000CC3F8045C3746C1E90055C3F8102C13
:10540000C0E90012C3F8142CC3F8081CC3F80C6CD4
:10541000A6E7254CC2F804E04560A6462468A242EF
:10542000FBD8DEF804500EEB050842452FD1D2F828
:10543000048072464544CEF8045002EB050844450A
:1054400027D014609645446818BFCEF80020D3F8E2
:10545000101CACEB04028A4238BFC3F8102CC3F80E
:10546000142C00233C43C0E90034FFF73FF97307D5
:10547000ABD04FF0500383F31188BFF36F8FBFF3AE
:105480004F8FFEE71A46184603F54061A8E75568B6
:10549000D3E78C42D5D0616824680D44C2E9004549
:1054A000D0E700BF8405002084110020E8B170B56A
:1054B000274D50F8043CD5F80C2C044613420BD071
:1054C00050F8081C91B14FF0500383F31188BFF3DB
:1054D0006F8FBFF34F8FFEE74FF0500383F31188B8
:1054E000BFF36F8FBFF34F8FFEE7704723EA0203CE
:1054F00040F8043CFFF750F8D5F8142C54F8040C8D
:10550000A4F108030244C5F8142C05F540621146C5
:1055100012689342FBD84C680E19B3420AD01C188B
:10552000A2420BD01A60994218BF0B60BDE87040D0
:10553000FFF7DCB820440B464860F0E7D5F8084C8C
:10554000A242EFD014CA2044C3E90020EBE700BF19
:1055500084050020000000002DE9F04FAC4D9BB009
:1055600004222946AB48FBF729FE2C68AA4E2046A8
:10557000FBF752FAFBF7F2F8A3A3D3E90023FAF7FB
:105580005FFEFBF743F9A549FBF79EFAFBF7ECFB3F
:10559000A34B00F5C87018606868FBF73DFAFBF78D
:1055A000DDF899A3D3E90023FAF74AFEFBF72EF9B9
:1055B0009A49FBF789FAFBF7D7FB9A4B00F5C870BD
:1055C0001860A868FBF728FAFBF7C8F88EA3D3E9A0
:1055D0000023FAF735FEFBF719F99049FBF774FA47
:1055E000FBF7C2FB904B00F5C8701860E868FBF74A
:1055F00013FAFBF7B3F884A3D3E90023FAF720FEEC
:10560000FBF704F98549FBF75FFAFBF7ADFB33685D
:1056100000F5C870854F8342386027D3DFF844C255
:10562000DFF84492323BD9F80020DFF84082824212
:1056300088BFC9F800008342C8F800302BD99CF815
:1056400000300133DBB2022B8CF8003040F2D28004
:10565000002301228021306075488CF80030FCF76F
:105660005DFA744800F004F92C6817E0DFF8F4C123
:105670007149C21A642A0A609CF80020C2BF013234
:10568000D2B28CF80020022ACAD900220346306028
:105690008CF80020C4E700238CF80030674B0A2206
:1056A0001B6869464FEA134C204603AC8DF80EC0C8
:1056B000ADF80C3001F032FD2046FAF7B9FD69462D
:1056C000204401F05BFD03465D4A6946106812798B
:1056D00018601A7168680A2201F020FD2046FAF766
:1056E000A7FD6946204401F049FD0346554A694635
:1056F0001068127918601A71A8680A2201F00EFD6C
:105700002046FAF795FD6946204401F037FD03462F
:105710004D4A69461068127918601A71E8680A22C1
:1057200001F0FCFC2046FAF783FD6946204401F0B5
:1057300025FD464B464AB3F800B093F802A0136823
:10574000A0F800B080F802A01D0C0A226946386853
:10575000ADF80C308DF80E5001F0E0FC2046FAF761
:1057600067FD6946204401F009FD0346394A694650
:105770001068127918601A71D8F800000A2201F036
:10578000CDFC2046FAF754FD6946204401F0F6FCB2
:105790000346314A314D1068694618600A22306864
:1057A00001F0BCFC6946204601F0F1FC69460A2282
:1057B000286801F0B3FC2046FAF73AFD0346284971
:1057C000021D08686946E050A01801F0D7FCA0F857
:1057D00000B080F802A02B680133042B2B6003D1AA
:1057E0003B683360C9F80030204600F041F81BB038
:1057F000BDE8F08F002280210D48FCF78FF92C685E
:105800004CE700BFAFF30080F0A7C64B3789E93FF4
:10581000EC180020942A002040190020000030419C
:10582000441900203C1900204C190020E4180020E5
:1058300000100140DC7A000848190020EC7A0008CA
:10584000F07A0008F87A0008007B0008B47C0008B1
:10585000087B00080C7B0008147B00089C110020CA
:10586000187B0008E01800200C000020E818002039
:1058700038B50446FAF7DCFC064D214682B2052312
:105880002846FDF761FC2846BDE8384096220249CB
:10589000FDF7E2BCC42A0020801F002070B50C2355
:1058A000002401200A26124A12491372116001F1E4
:1058B000595101F1141101F5705151605072116884
:1058C0005068947288B09568CDF80D100DEB030206
:1058D0007C21CDF8110000960748CDF815508DF8C1
:1058E0000C40FCF779FA054800F056F808B070BD96
:1058F000B81F002000380039A0290020207B0008B4
:1059000030B589B00546FAF793FC4023441C29467C
:1059100022460DF10D008DF80C3001F001FC0A2239
:105920007C210092A3B203AA0248FCF755FA09B001
:1059300030BD00BFA029002010B50A23002001249B
:10594000074A82B000937C211070022354700548EE
:10595000FCF742FA052002B0BDE81040FBF748BA58
:10596000B81F0020A029002010B50A230024084AEF
:1059700082B000937C215070022314700548FCF71C
:105980002BFA0F2002B0BDE81040FBF731BA00BF80
:10599000B81F0020A029002010B50446FAF748FCE3
:1059A0002146BDE8104082B205230148FDF7CCBB7B
:1059B0005C29002010B50A48FFF75AFF2822094940
:1059C0000948FDF749FC4FF0807404220749084B51
:1059D0000C601A700748BDE81040FFF749BF00BFD0
:1059E000907B0008801F0020B02B00204C29002055
:1059F000100000209C7B0008F8B5864C2378013B02
:105A00000E2B1DD8DFE813F01D0021002F003E00F3
:105A10004F005D00820086009300A100A500A90050
:105A2000AD00E6000F0005230A227B497B48FDF705
:105A30008BFB8C227A497948FDF70EFC00232370FA
:105A4000F8BD052308227749F0E7052304227649AB
:105A50007248FDF779FB8C2271497048FDF7FCFB19
:105A600005232370F8BD05230A2270496B48FDF712
:105A70006BFB8C226A496948FDF7EEFB01226C4BF7
:105A80005A70F8BD05230A226A496448FDF75CFB99
:105A90008C2263496148FDF7DFFB00220921644B3A
:105AA0002170DA70F8BD05230B2263495B48FDF7CE
:105AB0004BFB8C225A495948FDF7CEFB0323237038
:105AC000F8BD22265D4B5E4D03CB1B7828606960D4
:105AD0002B725C496E7205F10A0001F04FFB034620
